:20000000020026020215FFFFFFFFFF020366FFFFFFFFFFFFFFFFFFFFFFFFFFFFFFFFFFFF4B
:20002000FFFFFF02142B7AFFDAFE758172758921758DFDD28E53877F75985075A81375B838
:2000400010D203120A2FD2B2C245C246C247C202C201C200C212C273D211C280C241C2AFE9
:20006000C242D20BC2B3752AFF752E00752300C282C281C283C284C212C21675A000120C60
:200080004312047AC297754179120E2412047AC208C209C20AD211C280D2AF120E7F120673
:2000A00028C2AFC2AC120A2F120628C207D28CD28E751503C210D211C273C242C205C21310
:2000C0007532FF12064412064412064412064412064400C240C218C219C21A00D2ACD2AF1C
:2000E000020184758172D2B2758921D203C202C201C200C21275A813C280D211C2AFD20BD9
:20010000C2B3C282C28175A040438018D280C211D2AF75985053877FC297754179120E248B
:2001200075279F120E41120FD512068FD527F4120E4112068F120FD5D527F4C20BD2B3C294
:2001400007783B120AC9120AEFD28CD28E751503D280C211120DB1754178120E2400C2423F
:20016000C210D280C211C205C213C215C240C218C219C21A75240000204703120F54C24701
:2001800078E0A63E120E41120E50120FD512039C12047A120FD51204B2120FD51206A71296
:2001A0000FD5204203020184C242E529B40106120E7F020184B40206120E94020184B403CE
:2001C00006120EA9020184B40406120EBD020184B40506120ED1020184B40606120EE502A9
:2001E0000184B40706120EF9020184B40806120F0D020184B40906120F24020184B40A064F
:20020000120F41020184B40B03120F54B40C03120FAB020184C0D0C0E05380E1D28CC2D3D1
:20022000D2D41202C812035F20B25253800153A00043800243A080758A00758C00E58C94B0
:2002400008603A30B2F7E58C758C00758A00C394034008E6234401F6020260E62354FEF617
:20026000DF28E516B4022002026AC289E5362534B5330A75243FD2151202D5740053800197
:20028000F533D0E0D0D0321202C0E58C940860ED20B2F7E58C758C00758A00C394034008AA
:2002A000E6234401F60202ADE62354FEF6DF08E516B4020602026A02023D1202C002023D96
:2002C00005161876007F082275170775360075160075103622B4FC0C753300D2427529010F
:2002E000120A2A2220800122B4FE0C753300D242752902120A4C22B41D061208990203534D
:20030000B405061208BC020353B4040AD242752903B208020353B41C0AD242752904B2091C
:20032000020353B47C0AD242752905B20A020353B4FD0ED24275290A1209BB120AEF0203FF
:2003400053B47D0ED24275290A1209E2120AEF02035322C20BD2B3120A4F22753477227B31
:2003600046DBFE220032C0D0C0E0C0A075A000C28CE51514C2D79403400302038F1515C513
:2003800015B40014C51551C8C2D3C2D4751510D28CD0A0D0E0D0D032C51580F375A00043D3
:2003A00080E05380E1308006001203DFD282120673C2828521A0D281120673C281300B0AB0
:2003C00075A04043801812067322853AA0D284120673C2848539A0D283120673C28322C055
:2003E000E0E53EB40105D2A0020420B40205D2A1020420B40305D2A2020420B40405D2A3CC
:20040000020420B40505D2A4020420B40605D2A5020420B40705D2A6020420B40802D2A76B
:20042000D0E022C0E0B40005D2A4020475B40105D2A3020475B40205D2A2020475B4030590
:20044000D2A1020475B40405D2A0020475B40503020475B40605D2A0020475B40705D2A1EE
:20046000020475B40805D2A2020475B40905D2A3020475D2A4D0E022003243B0F00000E55D
:20048000B000F454F0C4B52A0122C2AF000000000043B0F0000000E5B00000F454F0C400C9
:2004A000B52A0400D2AF22F52A4480F52BD273D2AF2220137C5380E14380E075A0FF5380DE
:2004C000DF12058E601775370043371075A0FFE5A0B4BF064337070205E70205A74380E019
:2004E0005380BF12058E60097537004337200205A74380E053807F12058E60097537004376
:2005000037300205A720052A300E1A300317207014C20EC21278E0E6F53E120AEF1208DF18
:20052000120F0DC2704380E0C20330806030075C22225380E14380E075A0FF53807F75A03A
:20054000FFE5A0B4DF07D270D20ED212225380E14380E075A0FF5380DF75A0FFE5A0B4BF2C
:200560000BC271D216200303120EF92220711C2070F9C20EC21278E0E6F53E120AEF120884
:20058000DF120A5A120F0DC213C20522222275A0FFE5A00094FF600C12068FE5A094FF601F
:2005A0000374FF2274002275A0FFE5A0C271C216C270C212B4FE064337010205E7B4FD068B
:2005C0004337020205E7B4FB064337030205E7B4F7064337040205E7B4EF06433705020545
:2005E000E7B4DF06433706D20222753700C20222C030C031C03275311275320A853230D57B
:2006000030FDD531F7D032D031D03022C030C031C03275317F75327F853230D530FDD5317E
:20062000F7D032D031D03022C030C031C03275311A75321A853230D530FDD531F7D032D092
:2006400031D03022853231853230D530FDD531F722C030C031C032753288753168D144D062
:2006600032D031D030227A687D48DDFE12039CDAF70022C030C031C03275310275320A854E
:200680003230D530FDD531F7D032D031D030227A1A7D1ADDFE12039CDAF75380E14380E0F5
:2006A00075A0FF53801F22F54885D049C0D0C0E0300204E5377036753700753D00D0E0D031
:2006C000D0201601222003FC2071F9C216C20EC212120EF922053DE53DB4010122C39430CE
:2006E000400AE53DB43905753D30740122B41114C247208009200344120A0F02086E120A72
:200700006502086E308035B4120C20032F120A4C120E9402086ED2B3B41306120899020850
:200720006EB414061208BC02086EB4151220030C1209BB120AEF120F4102086B02086FB440
:20074000160F2003F71209E2120AEF120F4102086BB421122003E5120944120AEF753E016E
:20076000120F4102086BB422122003D0120952120AEF753E02120F4102086BB423122003B7
:20078000BB120960120AEF753E03120F4102086BB424152003A612096E120AEF753E041278
:2007A0000F4102086B02086FB425122003F712097C120AEF753E05120F4102086BB42612D9
:2007C0002003E212098A120AEF753E06120F4102086BB431122003CD120998120AEF753E7C
:2007E00007120F4102086BB432122003B81209A6120AEF753E08120F4102086BB4330B20D8
:2008000003A3B208120EA902086BB4340E200308B209120EBD02086B02086FB4350B20037C
:20082000F7B20A120ED102086BB43622C270200B47200E0D78E0A63E753E08120AEF120898
:20084000DFD20ED212200327120F0D02086BB4171E20031BC271200B08D216120EF9020870
:200860006BD216120EF9D20502088D120A4F00D203C202D0E0D0D022D20ED212D205120A71
:200880004F120F0DD203C202D0E0D0D022120A4FD203C202D0E0D0D0221206D5B40115782B
:2008A0003BE6B499030208B4120AE0120A4F120AC9120F240012137B120DB1221206D5B445
:2008C0000115783BE6B400030208D7120AE7120A4F120AC9120F240012137B120DB122E5C2
:2008E0003EB4010C753A06753908D210753E0122B40209753A5B753908D21022B40309751E
:200900003A4F753908D21022B40409753A66753908D21022B40509753A6D753908D210226C
:20092000B40609753A7D753908D21022B40709753A07753908D21022B408B1753A7F753991
:2009400008D21022753A06753908D210753E010209B1753A5B753908D210753E020209B1BB
:20096000753A4F753908D210753E030209B1753A66753908D210753E040209B1753A6D75BE
:200980003908D210753E050209B1753A7D753908D210753E060209B1753A07753908D21039
:2009A000753E070209B1753A7F753908D210753E08753F14853E40120B7F22E53EB40102DD
:2009C0008090B402028099B4030280A2B4040280ABB4050280B4B4060280BDB4070280C68B
:2009E0002144E53EB4080280AFB40702809CB406028089B40502216EB404022160B40302A6
:200A00002152B402022144809D208059120E7F0000120A2800120A28758172204502D24622
:200A2000304602D2450200E3322220800280E0758921C280C20BC2B3D211C20E753A007572
:200A40003900754179120E245321F022300B0BC20BD2B3754178120E2422D20BC2B3754130
:200A600079120E2422753800D20BC2B3120E94120A5A12039C12039C120AAA12039C301451
:200A8000D912039C758920758DFDD28E12039CD28EC28F308FFD12039C0538E538B4FFCFA4
:200AA000C280D211120E7F020A2FC2145380E14380E075A0FF5380DF75A0FFE5A0B4FE03F6
:200AC000D21422758921020A5AE53BF542540F9014A893F53AE53BC4540F93F539C21022C5
:200AE000E6C32401D4F622749A940126D4F622E53EB4010AC290C291C292020AFD22B402CB
:200B000008D290C291C29280F4B40308C290C292D29180E9B40408D290D291C29280DEB434
:200B20000508C290D292C29180D3B40608D290D292C29180C8B40708C290D292D29180BD10
:200B4000B40808D290D292D29180B2753E01809FD2960000D2950000C2960000C29522C241
:200B6000960000D2950000D2960000C29522C29600D2950000C29522D2950000C29522710E
:200B80005074A0120C0F000000716E000000E53F120C0F000000716EE540120C0F00000063
:200BA000716E000000715F2219715074A0120C0F00716E007400120C0F00716E7B0709E778
:200BC000120C0F00716EDBF6715F22715074A0120C0F00716E00E53F120C0F00716EE54010
:200BE000120C0F00716E00715F22715074A0120C0F00716EE53F120C0F00716E715074A110
:200C0000120C0F716E120C2BF5400000715F22C29575020820E705C296020C1ED296D29523
:200C2000D50203C29522C2952380E974007C08D296D295209604C3020C3BD333C295DCF1C7
:200C4000C2952200753F0071EAB43F2E1205F01205F0753F0571EAB46D201205F01205F07A
:200C6000753F1071EA85403B1205F01205F0532108753F1471EA85403E229014B27800793C
:200C800050E893F70809B958F87800795071A81205F01205F07804795471A8753B00753E4B
:200CA00001753F121205F085214053400F1205F01205F0717F1205F0753F141205F0853E47
:200CC000401205F01205F0717F1205F0753F101205F0853B401205F01205F0717F22C2150D
:200CE000E54554075321F84221753F1285214053400F717F1205F01205F0E5B054F0B52D99
:200D0000697526FFE545F521A2E49210A2E59211A2E69212A2E7921685463B85473E1205BA
:200D2000F0753F101205F0853B401205F01205F0717F001205F0753F141205F0853E40120F
:200D400005F01205F0717F00301103512F22D280783B20100551C9020D5E153E31BB51EF81
:200D6000120DB1200B02414F415AE545A2E69212A2E7921630121BC20EC212300B06C205BB
:200D8000D213117E30161E200B1122C20512056C80F2C20EC2122013F280E9C216C205D2BE
:200DA00013117E80E520130280E0C20512056C80D9C0D0C0E0C2D3C2D4120DF17488120D6E
:200DC000F9120E0FE5429014BA009300C4540F44E0120DF9120E0FE5429014BA00930054D5
:200DE0000F44D0120DF9120E0F120E18D0E0D0D022D294D29300C29322C294790820E705BA
:200E0000C293020E07D293D29423C294D9EF22C294C293D294C29432C294C293D29400D2BC
:200E200093C29432C0D0C0E0C2D3C2D4B1F17488B1F9D10FE541B1F9D10FD118D0E0D0D02B
:200E400032E525B40022C20CE526B4000BC20D22E524B40023C20F22201F0AD21F001526AF
:200E6000A234920D22C21F22201F0AD21F001525A22C920C22C21F221524A224920F22759C
:200E80001857751930751A31A211005003751A3212138522751857751930751A33A20B00C1
:200EA0004003751A3412138522751857751930751A35A2084003751A361213D82275185745
:200EC000751930751A37A2094003751A381213D822751857751930751A39A20A4003751AD2
:200EE000411213D822751857751930751A42A2104003751A43121385227518577519307575
:200F00001A44A2164003751A4512138522751857751930751A46A2124006751931751A30E9
:200F200012138522751856E54254F0C4004430F519E542540F443000F51A1213851206285A
:200F400022751853751930E53E4430F51A1213851206282212060C120F4112060C12060C51
:200F6000120F2412060C12060C12060CC210120EE512060C120EA912060C12060C120EBDD7
:200F800012060C120ED112060C120F0D12060C120E9412060C12060C12060C12060C12066A
:200FA0000C12060C120E7F12060C22120F4112060C12060C120F2412060C12060CC2101201
:200FC0000EE512060C120E9412060C12060C120E7F12060C220030180400120FDE22C2AF3B
:200FE00085551B85561C85571D30191A855955855A56855B57301A13855D59855E5A855F51
:201000005BC21A021010C218021010C219021010D2AF00E51BB45703021065B4520302115C
:20102000F7B44B03021220B4560302126CB45303021287B431030212FAB43203021303B4A6
:20104000330302130CB43403021315B4350302131EB43603021327B43703021330B43803BA
:20106000021339222212134260FA1490107475F003A400730210CD0210D80210E00210E9C0
:201080000210F202110002110E02111C02112A02113802114602114B0211530211750211A9
:2010A000810211B10211CC0211D20211D80211DB0211DE0211E10211E40211E70211EA0279
:2010C00011ED0211F00211F30000020026301105D247120A0F02137AD247120A2F02137AD5
:2010E000200B03120A5A02137A300B03120A4F02137A200808D208300B03120A4F02137A43
:20110000300808C208300B03120A4F02137A200908D209300B03120A4F02137A300908C246
:2011200009300B03120A4F02137A200A08D20A300B03120A4F02137A300A08C20A300B03DC
:20114000120A4F02137AD210021294C210120AC902137A20161CD271200B0BD216120A4FA7
:2011600000D203C20222D216D205120A4FD203C2022202137A301604C271C216C2430213D1
:201180007A20122AD20ED21278E0A63E753E08120AEF1208DF200B0BD203C202D272D27065
:2011A000D24422D205120A4FD272D270D24402137A301215C272C270C244C20EC21278E0CB
:2011C000E6F53E120AEF1208DF02137A120AE002137A120AE702137A02137A02137A021313
:2011E0007A02137A02137A02137A02137A02137A02137A02137A2212134260FA14901206ED
:2012000075F003A4007302121902121A02121B02121C02121D02121E222222222222222222
:2012200012134260FA1490122F75F003A4007301CD01D801E001E901F22100210E211C2176
:201240002A21382146214B21532175218121B121CC21D28083808480858086808780888039
:2012600089808A808B808C0000020026121342F542F53BC210120DB1300B03120A4F120A67
:20128000C912137B02137A121342F53EB409004003753E01E53E149012A075F003A4007310
:2012A0000212B80212BE0212C40212CA0212D00212D60212DC0212E21209440212E81209B0
:2012C000520212E81209600212E812096E0212E812097C0212E812098A0212E812099802DB
:2012E00012E81209A60212E8120AEF300B03120A4F75187F7519FF02137A121342B414002C
:20130000500022121342B41400500022121342B41400500022121342B41400500022121353
:2013200042B41400500022121342B41400500022121342B41400500022121342B414005070
:201340000022E51C54F0B4301EE51D54F0B43003021359B4401102136AE51C540FC4F51ECA
:20136000E51D540F451E22740022E51C540FC4F51EC3E51D943700451E2222753F10853BF7
:2013800040120B7F22C0E0C29CC2ACD297E52BF5991099030213917420F5991099030213A7
:2013A0009BE518F5991099030213A5E519F5991099030213AFE51AF5991099030213B9C2DC
:2013C00097D29CD2ACD0E07525FF120628307307D242C27375290C32C0E0C29CC2ACD2975D
:2013E00074EFF5991099030213E47420F5991099030213EEE518F5991099030213F8E51944
:20140000F599109903021402E51AF59910990302140CC297D29CD2ACD0E07525FF12062851
:20142000307307D242C27375290C32C0E0C0D020991E304003021459E599F52DB4EF0302AC
:20144000144B30E70B547F00B52A0575434FD240C299C298D0D0D0E032E5990543A843F65D
:2014600000E8B453EB00201813855155855256855357D218C2407526FF0214502019138503
:20148000515985525A85535BD219C2407526FF021450201A0B85515D85525E85535FD21A81
:2014A000C2407526FF0214503F065B4F666D7D077F6F3F065B4F666D7D07797877767574E9
:2014C00073727170707070707070696867666564636261606060606060605958585756556E
:2014E000545352515151515151515049484746454443424141414141414140393938373721
:20150000373636353535353535353534333231302928272616161616161625242322212095
:20152000191817161616161616161515141413131212111111111111111110100909080863
:1A154000070706060606060606060505040403020201010000000000000038
:00000001FF
